:1000000071C000008EC000008CC000008AC00000DB
:1000100088C0000086C0000084C0000082C00000CC
:1000200080C000007EC000007CC000007AC00000DC
:1000300078C0000076C0000074C0000072C00000EC
:1000400070C000006EC000006CC000006AC00000FC
:1000500068C0000066C0000064C0000062C000000C
:1000600060C000005EC000005CC000005AC000001C
:1000700058C0000056C0000054C0000052C000002C
:1000800050C000004EC000004CC000004AC000003C
:1000900048C0000046C0000044C0000042C000004C
:1000A00040C000003EC000003CC000003AC000005C
:1000B00038C0000036C0000034C0000032C000006C
:1000C00030C000002EC000002CC000002AC000007C
:1000D00028C0000026C0000024C0000022C000008C
:1000E00020C0000011241FBECFEFD1E2DEBFCDBF84
:1000F00000E00CBF12E0A0E0B2E0EAE1F2E000E0D4
:100100000BBF02C007900D92A830B107D9F722E0CB
:10011000A8E0B2E001C01D92AB30B207E1F75DD0BC
:100120007AC06ECF8AB18E608AB984B18FEF84B9FC
:10013000089585B98BB188608BB98FE99FE00197ED
:10014000F1F700C000008BB1877F8BB908959BB198
:1001500092609BB9EECF08950F931F93CF938C01BC
:10016000C0E002C0F4DFCF5FF801EC0FF11D808129
:100170008111F8CFCF911F910F910895811102C085
:1001800080E801C080EC9BB19D7F9BB9860FD1DFD9
:100190008BB182608BB908958BB18B7F8BB98BB19A
:1001A0008D7F8BB981E0C5DF82E0C3DF80910802DB
:1001B00084608E7F826080930802BBDF8091090299
:1001C0008E608E7F80930902B4DF80910A0288637B
:1001D000846080930A02ADCF08958AB180618AB9A4
:1001E000A1DFDADF60E080E0C9DF82E6B0DF60E057
:1001F00081E0C4DF80E092E0AFDF9BB180E189273E
:100200008BB92FEF83ED90E3215080409040E1F7D0
:0A02100000C00000F2CFF894FFCF09
:08021A00486F6C61203A2900D5
:00000001FF
