:1000000071C000008EC000008CC000008AC00000DB
:1000100088C0000086C0000084C0000082C00000CC
:1000200080C000007EC000007CC000007AC00000DC
:1000300078C0000076C0000074C0000072C00000EC
:1000400070C000006EC000006CC000006AC00000FC
:1000500068C0000066C0000064C0000062C000000C
:1000600060C000005EC000005CC000005AC000001C
:1000700058C0000056C0000054C0000052C000002C
:1000800050C000004EC000004CC000004AC000003C
:1000900048C0000046C0000044C0000042C000004C
:1000A00040C000003EC000003CC000003AC000005C
:1000B00038C0000036C0000034C0000032C000006C
:1000C00030C000002EC000002CC000002AC000007C
:1000D00028C0000026C0000024C0000022C000008C
:1000E00020C0000011241FBECFEFD1E2DEBFCDBF84
:1000F00000E00CBF12E0A0E0B2E0E0E0F5E000E0DC
:100100000BBF02C007900D92A637B107D9F722E0C6
:10011000A6E7B2E001C01D92AB38B207E1F72AD0E2
:10012000EDC16ECFECE7F2E080E895E2A0E0B0E050
:1001300083879487A587B687128681E08483858329
:100140008283138283E0868310861182178282E085
:1001500081871082CF0190C0089581B18F7E81B9CF
:1001600087B18F6087B987B1806187B987B18062B5
:1001700087B90895D7DFF1DF87E392E088D116C011
:10018000049B14C00499FECFC0B1CF70D0E0C55B12
:10019000DD4F888175D180917702E82FF0E098815A
:1001A000E858FD4F90838F5F8093770280917702AC
:1001B000843030F38DE064D11092770286E292E0D1
:1001C00066D120E040E00EC0822F90E0FC01E858AC
:1001D000FD4F3081FC01E050FE4F8081381301C09B
:1001E0004F5F2F5F243080F34430C1F486E192E00A
:1001F0004ED188B1806288B92FEF8BE792E9215008
:1002000080409040E1F700C0000088B18F7D88B940
:100210001092760288B1807F88B914C084E092E0A1
:1002200036D128B181E090E00090760202C0880FBC
:10023000991F0A94E2F7822B88B9809176028F5F2A
:100240008093760280917602843009F0AFCF8BE5FF
:1002500092E01DD198B180E1892788B998B18FE0EB
:10026000892788B92FEF89E698E121508040904096
:10027000E1F700C00000EECFCF92DF92EF92FF9245
:100280000F931F93CF93DF93EC018DB182608DB9F3
:100290008DB18E7F8DB9E0ECF0E010821092C1003C
:1002A0001092C20080818F7B808320819881892F6A
:1002B00090E0880F991F822B808390818981892B00
:1002C0008083808181FF1EC08B859C85AD85BE8526
:1002D000880F991FAA1FBB1F880F991FAA1FBB1F3A
:1002E0009C01AD01220F331F441F551F60E074E2D3
:1002F00084EF90E0E1D0215031093093C500209384
:10030000C40021C08B859C85AD85BE85880F991F53
:10031000AA1FBB1F880F991FAA1FBB1F9C01AD01FD
:10032000220F331F441F551F220F331F441F551F19
:1003300060E074E284EF90E0BFD021503109309347
:10034000C5002093C400E1ECF0E020818A8130E810
:10035000839FA00111249D8130E4939FC00111244B
:100360009F81842B892B822B808320818C8190E13B
:10037000899FA00111249D81892F90E0880F991FEA
:10038000880F991F880F991F842B822B80832E81C1
:10039000822F847090E0959587959595879530810B
:1003A0009927880F991F880F991F832B8083388581
:1003B0004081932F9270892F90E09595879596951F
:1003C000982F882797958795842B8083808130FB91
:1003D000CC24C0F8D12C0024D694C7940794D6948A
:1003E000C7940794DC2CC02CC82AC0824985E2EC53
:1003F000F0E03081842F827090E095958795880F8A
:10040000991F82959295907F9827807F982740FB2F
:10041000EE24E0F8F12CEE0CFF1CEE0CFF1CEE0CB1
:10042000FF1CEE0CFF1CE82AE32AE08230819A854B
:10043000892F90E0880F991F880F991F880F991FA7
:10044000832B80833081822F827090E095958795F1
:10045000880F991F880F991F022F017010E0000F5D
:10046000111F082B032B0083808181608083DF9123
:10047000CF911F910F91FF90EF90DF90CF90089553
:100480009091C00095FFFCCF8093C60008950F9314
:100490001F93CF93DF938C01C0E0D0E002C0F0DF68
:1004A0002196F801EC0FFD1F80818111F8CFDF91BB
:1004B000CF911F910F910895A1E21A2EAA1BBB1B89
:1004C000FD010DC0AA1FBB1FEE1FFF1FA217B30720
:1004D000E407F50720F0A21BB30BE40BF50B661F36
:1004E000771F881F991F1A9469F7609570958095FA
:1004F00090959B01AC01BD01CF010895F894FFCF09
:1005000034353530436C61766520696E636F727285
:10051000656374610D00436C61766520636F727270
:10052000656374610D00436C61766520696E677266
:1005300065736164610D004573637269626520745F
:100540007520636C6176653A200D003738392534A3
:100550003536783132332D70303D2B5375706572DE
:100560006F206E756D65726F20646520696E7465AD
:060570006E746F730D00B4
:00000001FF
