:1000000071C00000DCC10000E6C100008AC0000031
:1000100088C0000086C0000084C0000082C00000CC
:1000200080C000007EC000007CC000007AC00000DC
:1000300078C0000076C0000074C0000072C00000EC
:1000400070C000006EC000006CC000006AC00000FC
:1000500068C0000066C0000064C0000062C000000C
:1000600060C000003DC100005CC000005AC000003C
:1000700058C0000056C0000054C0000052C000002C
:1000800050C000004EC000004CC000004AC000003C
:1000900048C0000046C0000044C0000042C000004C
:1000A00040C000003EC000003CC000003AC000005C
:1000B00038C0000036C0000034C0000032C000006C
:1000C00030C000002EC000002CC000002AC000007C
:1000D00028C0000026C0000024C0000022C000008C
:1000E00020C0000011241FBECFEFD1E2DEBFCDBF84
:1000F00000E00CBF12E0A0E0B2E0E4E8FDE000E0C8
:100100000BBF02C007900D92A236B107D9F722E0CB
:10011000A2E6B2E001C01D92AE37B207E1F7DFD12F
:100120002FC66ECFAF92BF92DF92FF920F931F93B5
:10013000CF93DF93FC01A9E6B0E09C9180818370AE
:10014000892B8C93DC9091819370892F90E0880F9C
:10015000991F880F991F8D298C93DC909281937041
:1001600020E1929FC00111248D298C93DC90938112
:1001700030E4939FC00111248D298C93AAE6B0E04E
:100180009C9184818370892B8C93DC9095819370F2
:10019000892F90E0880F991F880F991F8D298C93C4
:1001A000DC909681937020E1929FC00111248D29EB
:1001B0008C93DC90978130E4939FC00111248D29AA
:1001C0008C938DB39085F1846F2D617070E0660F14
:1001D000771F9170692B682B6DBB8DB39285092FAA
:1001E000017010E0000F111F000F111F9385492FA0
:1001F000417050E0440F551F440F551F440F551FC9
:10020000402B482B4DBB8DB394859170C92F90E046
:10021000D92FC295D295D07FDC27C07FDC2795856A
:10022000292F217030E0220F331F22953295307F25
:100230003227207F32272C2B282B2DBB2DB38685F0
:1002400080FBAA24A0F8B12CD5010024B695A7956F
:100250000794B695A7950794BA2FA02D978530E8F7
:10026000939FC00111248A2B822B8DBB8DB38F707D
:1002700090E0809590959AB189238AB98DB3807F5B
:1002800090E0809590959DB189238DB980898CBB34
:100290008189882359F08DB39BB18F70892B8BB9DD
:1002A0008DB39EB1807F892B8EB910C08DB38F70B6
:1002B00090E0809590959BB189238BB98DB3807F19
:1002C00090E0809590959EB189238EB97894DF91C6
:1002D000CF911F910F91FF90DF90BF90AF90089545
:1002E0001F920F920FB60F9211240BB60F922F93FD
:1002F0003F934F935F936F937F938F939F93AF93AE
:10030000BF93EF93FF938091C6008A3209F039C002
:10031000E0916202F0E0EC59FD4F1082109262020F
:100320006EE072E084E692E051D2892B91F08CE489
:1003300092E09F938F9364D281E08093630287E180
:1003400092E09F938F935CD20F900F900F900F903D
:1003500023C062E272E084E692E038D2892BE1F0B9
:100360008CE492E09F938F934BD2109263028CE2C5
:1003700092E09F938F9344D20F900F900F900F9025
:100380000BC0E0916202F0E0EC59FD4F8083809158
:1003900062028F5F80936202FF91EF91BF91AF91F4
:1003A0009F918F917F916F915F914F913F912F918D
:1003B0000F900BBE0F900FBE0F901F9018951F92BD
:1003C0000F920FB60F921124109263020F900FBE7E
:1003D0000F901F9018951F920F920FB60F92112435
:1003E0008F9381E0809363028F910F900FBE0F90E7
:1003F0001F90189587B1876087B987B1886087B9E2
:1004000088B18E7F88B988B1877F88B90895CF93E6
:10041000DF93CDB7DEB72F970FB6F894DEBF0FBED0
:10042000CDBF80E895E2A0E0B0E08C879D87AE87E5
:10043000BF871B8681E08D838E838B831C8283E044
:100440008F8319861A8218861A861982CE01019620
:1004500087D02F960FB6F894DEBF0FBECDBFDF91C9
:10046000CF910895CF93DF93CDB7DEB762970FB6E4
:10047000F894DEBF0FBECDBF83E0898381E089871A
:10048000198A1A8ACE0101964DDE62960FB6F8944B
:10049000DEBF0FBECDBFDF91CF910895CF93DF9325
:1004A000CDB7DEB762970FB6F894DEBF0FBECDBFF3
:1004B00083E08A8381E08A87198A1A8ACE010196AD
:1004C00031DE62960FB6F894DEBF0FBECDBFDF916E
:1004D000CF9108959CDFC6DFE1DF8CCF0895F894BB
:1004E000F9DF789488E392E09F938F9389D181E03C
:1004F000809363020F900F9080E00EC028B194E0CB
:10050000922798B92FEF39E698E12150304090407A
:10051000E1F700C000008F5F863080F38FE492E047
:100520009F938F936DD188B18B7F88B90F900F9077
:1005300080916302882351F088B1886088B988B1BE
:10054000816088B988B18D7F88B9F2CF88B1877F03
:1005500088B988B18E7F88B988B1826088B9E8CFC0
:10056000CF92DF92EF92FF920F931F93CF93DF937F
:10057000EC018DB182608DB98DB18E7F8DB9E0ECCB
:10058000F0E010821092C1001092C20080818F7B37
:10059000808320819881892F90E0880F991F822B7A
:1005A000808390818981892B8083808181FF1EC017
:1005B0008B859C85AD85BE85880F991FAA1FBB1FA3
:1005C000880F991FAA1FBB1F9C01AD01220F331F6B
:1005D000441F551F60E074E284EF90E0D5D02150B5
:1005E00031093093C5002093C40021C08B859C85C0
:1005F000AD85BE85880F991FAA1FBB1F880F991F45
:10060000AA1FBB1F9C01AD01220F331F441F551FA2
:10061000220F331F441F551F60E074E284EF90E007
:10062000B3D0215031093093C5002093C400E1ECD0
:10063000F0E020818A8130E8839FA00111249B8112
:1006400030E4939FC00111249F81842B892B822B3E
:10065000808320818C8190E1899FA00111249D815C
:10066000892F90E0880F991F880F991F880F991F75
:10067000842B822B80832E81822F847090E095952D
:1006800087959595879530819927880F991F880FB1
:10069000991F832B808338854081932F9270892FF7
:1006A00090E0959587959695982F882797958795AB
:1006B000842B8083808130FBCC24C0F8D12C002493
:1006C000D694C7940794D694C7940794DC2CC02C76
:1006D000C82AC0824985E2ECF0E03081842F827024
:1006E00090E095958795880F991F82959295907FB8
:1006F0009827807F982740FBEE24E0F8F12CEE0C41
:10070000FF1CEE0CFF1CEE0CFF1CEE0CFF1CE82A7D
:10071000E32AE08230819A85892F90E0880F991F23
:10072000880F991F880F991F832B80833081822F18
:10073000827090E095958795880F991F880F991F73
:10074000022F017010E0000F111F082B032B0083F4
:100750008081808380E092E090937B0280937A0294
:10076000DF91CF911F910F91FF90EF90DF90CF908D
:1007700008959091C00095FFFCCF8093C600089526
:10078000F8DF80E090E00895A1E21A2EAA1BBB1BBF
:10079000FD010DC0AA1FBB1FEE1FFF1FA217B3074D
:1007A000E407F50720F0A21BB30BE40BF50B661F63
:1007B000771F881F991F1A9469F760957095809527
:1007C00090959B01AC01BD01CF010895FB015191B2
:1007D0005523A9F0BF01DC014D9145174111E1F707
:1007E00059F4CD010190002049F04D91401541117F
:1007F000C9F3FB014111EFCF81E090E0019708952B
:10080000CF93DF93CDB7DEB7AE014A5F5F4FFA01FA
:1008100061917191AF0180917A0290917B0203D036
:10082000DF91CF9108952F923F924F925F926F92F6
:100830007F928F929F92AF92BF92CF92DF92EF9270
:10084000FF920F931F93CF93DF93CDB7DEB72B9714
:100850000FB6F894DEBF0FBECDBF6C017B018A01DD
:10086000FC0117821682838181FFBFC1CE010196F0
:100870003C01F6019381F70193FD859193FF8191EE
:100880007F01882309F4ADC1853239F493FD859148
:1008900093FF81917F01853221F4B60190E0D6D19A
:1008A000E8CF912C212C312CFFE1F315D8F08B32BD
:1008B00079F038F4803279F08332A1F4232D20616D
:1008C0001DC08D3261F0803369F4232D216016C084
:1008D000832D8260382EE32DE4603E2E2AC0F32D56
:1008E000F8601DC037FC2DC020ED280F2A3040F0E5
:1008F0008E32B9F436FC75C1232D2064322E19C016
:1009000036FE06C08AE0989E200D1124922E11C05A
:10091000EAE02E9E200D1124222EF32DF0623F2EB0
:1009200008C08C3621F4832D8068382E02C08836AA
:1009300041F4F70193FD859193FF81917F0181112E
:10094000B3CF982F9F7D9554933028F40C5F1F4FA1
:100950009FE399830DC0833631F0833771F083357F
:1009600009F055C020C0F801808189830E5F1F4FB8
:1009700088248394912C530112C02801F2E04F0E79
:10098000511CF801A080B18036FE03C0692D70E0D3
:1009900002C06FEF7FEFC5014ED14C018201F32DF4
:1009A000FF773F2E15C0280122E0420E511CF801AE
:1009B000A080B18036FE03C0692D70E002C06FEFE9
:1009C0007FEFC5012DD14C01F32DF0683F2E820140
:1009D00033FC19C0822D90E088169906A0F4B60168
:1009E00080E290E033D12A94F5CFF50137FC859170
:1009F00037FE81915F01B60190E028D121102A9441
:100A000021E0821A91088114910479F7E1C08436BB
:100A100011F0893639F5F80137FE07C06081718120
:100A2000828193810C5F1F4F08C060817181072E06
:100A3000000C880B990B0E5F1F4FF32DFF763F2E96
:100A400097FF09C090958095709561957F4F8F4F66
:100A50009F4FF0683F2E2AE030E0A30133D1882E6B
:100A6000861844C0853731F4232D2F7EB22E2AE01C
:100A700030E025C0932D997FB92E8F36C1F018F440
:100A8000883579F0AEC0803719F0883721F0A9C0D9
:100A9000E92FE061BE2EB4FE0DC0FB2DF460BF2E29
:100AA00009C034FE0AC0292F2660B22E06C028E0F5
:100AB00030E005C020E130E002C020E132E0F80182
:100AC000B7FE07C060817181828193810C5F1F4FE7
:100AD00006C06081718180E090E00E5F1F4FA3012E
:100AE000F1D0882E8618FB2DFF773F2E36FE0DC0E5
:100AF000232D2E7FA22E891458F434FE0BC032FC15
:100B000009C0832D8E7EA82E05C0B82CA32C03C04F
:100B1000B82C01C0B92CA4FE0FC0FE01E80DF11DD8
:100B20008081803321F49A2D997EA92E09C0A2FEDE
:100B300006C0B394B39404C08A2D867809F0B394A8
:100B4000A3FC10C0A0FE06C0B21480F4280C922CA6
:100B50009B180DC0B21458F4B60180E290E076D034
:100B6000B394F8CFB21418F42B1802C0982C212C8F
:100B7000A4FE0FC0B60180E390E068D0A2FE16C0CC
:100B8000A1FC03C088E790E002C088E590E0B601D0
:100B90000CC08A2D867851F0A1FE02C08BE201C004
:100BA00080E2A7FC8DE2B60190E050D0891430F4C9
:100BB000B60180E390E04AD09A94F8CF8A94F3018A
:100BC000E80DF11D8081B60190E040D08110F6CF94
:100BD000222009F44ECEB60180E290E037D02A946C
:100BE000F7CFF6018681978102C08FEF9FEF2B969A
:100BF0000FB6F894DEBF0FBECDBFDF91CF911F912E
:100C00000F91FF90EF90DF90CF90BF90AF909F90AB
:100C10008F907F906F905F904F903F902F900895AE
:100C2000FC010590615070400110D8F780959095B7
:100C30008E0F9F1F0895FC016150704001900110BC
:100C4000D8F7809590958E0F9F1F08950F931F934F
:100C5000CF93DF93FB01238121FD03C08FEF9FEF33
:100C60002CC022FF16C0468157812481358142174E
:100C7000530744F4A081B1819D012F5F3F4F318321
:100C800020838C93268137812F5F3F4F37832683C4
:100C900014C08B01EC01FB010084F185E02D199556
:100CA000892BE1F6D80116968D919C9117970196A4
:100CB00017969C938E931697CE01DF91CF911F913B
:100CC0000F910895FA01AA27283051F1203181F1BE
:100CD000E8946F936E7F6E5F7F4F8F4F9F4FAF4F44
:100CE000B1E03ED0B4E03CD0670F781F891F9A1F57
:100CF000A11D680F791F8A1F911DA11D6A0F711D0B
:100D0000811D911DA11D20D009F468943F912AE016
:100D1000269F11243019305D3193DEF6CF010895FE
:100D2000462F4770405D4193B3E00FD0C9F7F6CF2F
:100D3000462F4F70405D4A3318F0495D31FD4052F7
:100D4000419302D0A9F7EACFB4E0A695979587958D
:100D500077956795BA95C9F700976105710508956C
:100D60009B01AC010A2E0694579547953795279518
:100D7000BA95C9F7620F731F841F951FA01D0895B0
:040D8000F894FFCF15
:100D84000000000200000000C003000000006D6FBE
:100D9400746F723D6F6E004D4F544F52204F4E0A88
:100DA4000D006D6F746F723D6F6666004D4F544F4A
:100DB40052204F46460A0D00494E494349414E448C
:100DC4004F2053495354454D412E2E2E0A0D0053A6
:100DD400495354454D41204C4953544F2E2E2E0A0D
:020DE4000D0000
:00000001FF
