:10000000F2C0000010C100000EC100000CC10000D1
:100010000AC1000008C1000006C1000004C10000C0
:1000200002C1000000C10000FEC00000FCC00000D2
:10003000FAC00000F8C00000F6C00000F4C00000E4
:10004000F2C00000F0C00000EEC00000ECC00000F4
:10005000EAC00000E8C00000E6C00000E4C0000004
:10006000E2C00000E0C00000DEC00000DCC0000014
:10007000DAC00000D8C00000D6C00000D4C0000024
:10008000D2C00000D0C00000CEC00000CCC0000034
:10009000CAC00000C8C00000C6C00000C4C0000044
:1000A000C2C00000C0C00000BEC00000BCC0000054
:1000B000BAC00000B8C00000B6C00000B4C0000064
:1000C000B2C00000B0C00000AEC00000ACC0000074
:1000D000AAC00000A8C00000A6C00000A4C0000084
:1000E000A2C000006E616E00696E660000407A106A
:1000F000F35A00A0724E18090010A5D4E80000E8D9
:100100007648170000E40B54020000CA9A3B000036
:1001100000E1F505000080969800000040420F00C5
:100120000000A08601000000102700000000E80386
:10013000000000006400000000000A000000000051
:100140000100000000002C76D888DC674F0823DF10
:10015000C1DFAE59E1B1B796E5E3E453C63AE651E3
:10016000997696E8E6C28426EB898C9B62ED407C0A
:100170006FFCEFBC9C9F40F2BAA56FA5F490055AA6
:100180002AF75C936B6CF9676DC11BFCE0E40D47CB
:10019000FEF520E6B500D0ED902E030094357705EE
:1001A0000080841E080000204E0A000000C80C33A6
:1001B0003333330F986E12831141EF8D2114893B35
:1001C000E65516CFFEE6DB18D1844B381BF77C1DB5
:1001D000901DA4BBE424203284725E228100C9F108
:1001E00024ECA1E53D2711241FBECFEFD1E2DEBFF5
:1001F000CDBF00E00CBF12E0A0E0B2E0EAE6F5E11E
:1002000000E00BBF02C007900D92AA35B107D9F7E5
:1002100022E0AAE5B2E001C01D92A036B207E1F7E4
:1002200042D10C94B30AECCE87B1816087B988B112
:10023000816088B9089587B1816087B988B18E7F60
:1002400088B92FEF80EE90E0215080409040E1F798
:1002500000C0000088B1816088B987B18E7F87B9FE
:1002600080E00FC08F5F25E02A95F1F7000089320A
:1002700040F087B1816087B988B1816088B980E03A
:1002800008953099EFCF90E081E008C09F5F25E0AE
:100290002A95F1F70000913508F080E0309BF6CF09
:1002A00090E008C09F5F25E02A95F1F700009135A6
:1002B00008F080E03099F6CF08956F927F929F9278
:1002C000AF92BF92CF92DF92EF92FF920F931F9364
:1002D000CF93DF9300D01F921F92CDB7DEB78C0172
:1002E0003B01E42EFE01319685E0DF011D928A95E7
:1002F000E9F7A1DFF82E811126C096C0309BFECF12
:10030000BAEBBA95F1F700C0309B0CC047E050E063
:10031000481B510921E030E002C0220F331F4A95EB
:10032000E2F7922B3099FECF8F5F02C090E080E021
:10033000883020F3E1E0F0E0EC0FFD1FE60FF11D47
:1003400090836F5F01C060E0653080F3C9809A8060
:10035000BB808C2D890D8B0DAC808A0D9D818913FE
:1003600062C08EE092E09F938F930E94420AD12C4C
:10037000DC2CCC24C9286B2D70E0762F66276A29E7
:100380000F900F906130E0E87E0758F07F7780E0B3
:1003900090E0B2D220E030E040E251E445D2905803
:1003A00008C080E090E0A8D220E030E040E251E4D4
:1003B0003BD2F1E0EF1669F0EF1620F022E0E216F2
:1003C000C1F022C0D8016D937D938D939C931397B8
:1003D0001BC026E636E646EE5FE31CD320E030E0A5
:1003E00040E052E4BDD1F80160837183828393833E
:1003F0000BC023E333E948E853E4B2D1D8016D934D
:100400007D938D939C931397B60180E090E074D216
:1004100020E030E040E251E407D2F30160837183D1
:100420008283938301C0F12C8F2D0F900F900F903A
:100430000F900F90DF91CF911F910F91FF90EF9050
:10044000DF90CF90BF90AF909F907F906F90089576
:10045000CF93DF93CDB7DEB72F970FB6F894DEBFFB
:100460000FBECDBF80E895E2A0E0B0E08C879D870D
:10047000AE87BF871B8681E08D838E838B831C8232
:1004800083E08F8319861A8218861A861982CE0114
:10049000019651D02F960FB6F894DEBF0FBECDBF98
:1004A000DF91CF910895CF93DF93CDB7DEB7289733
:1004B0000FB6F894DEBF0FBECDBFCADFB5DE8AE14E
:1004C00092E09F938F93DED70F900F9040E0BE0194
:1004D0006B5F7F4FCE010196F0DE8823D9F08885CF
:1004E0008F938F818F938E818F938D818F938C814A
:1004F0008F938B818F938A818F9389818F938BE2E6
:1005000092E09F938F93BED70FB6F894DEBF0FBED5
:10051000CDBF07C084E492E09F938F93B3D70F9031
:100520000F909FEF23ED80E3915020408040E1F752
:1005300000C00000CBCFCF92DF92EF92FF920F93DB
:100540001F93CF93DF93EC018DB182608DB98DB194
:100550008E7F8DB9E0ECF0E010821092C100109215
:10056000C20080818F7B808320819881892F90E0D9
:10057000880F991F822B808390818981892B8083AA
:10058000808181FF1EC08B859C85AD85BE85880FCF
:10059000991FAA1FBB1F880F991FAA1FBB1F9C0171
:1005A000AD01220F331F441F551F60E074E284EF3A
:1005B00090E01CD6215031093093C5002093C4002F
:1005C00021C08B859C85AD85BE85880F991FAA1F8C
:1005D000BB1F880F991FAA1FBB1F9C01AD01220FD3
:1005E000331F441F551F220F331F441F551F60E048
:1005F00074E284EF90E0FAD5215031093093C500C0
:100600002093C400E1ECF0E020818A8130E8839FF0
:10061000A00111249B8130E4939FC00111249F818C
:10062000842B892B822B808320818C8190E1899F70
:10063000A00111249D81892F90E0880F991F880FB8
:10064000991F880F991F842B822B80832E81822FE4
:10065000847090E095958795959587953081992739
:10066000880F991F880F991F832B808338854081BD
:10067000932F9270892F90E0959587959695982F56
:10068000882797958795842B8083808130FBCC24A5
:10069000C0F8D12C0024D694C7940794D694C7945C
:1006A0000794DC2CC02CC82AC0824985E2ECF0E01B
:1006B0003081842F827090E095958795880F991FDF
:1006C00082959295907F9827807F982740FBEE2413
:1006D000E0F8F12CEE0CFF1CEE0CFF1CEE0CFF1CE6
:1006E000EE0CFF1CE82AE32AE08230819A85892FEC
:1006F00090E0880F991F880F991F880F991F832BEF
:1007000080833081822F827090E095958795880F45
:10071000991F880F991F022F017010E0000F111F01
:10072000082B032B00838081808380E092E09093EC
:100730005D0280935C02DF91CF911F910F91FF903A
:10074000EF90DF90CF9008959091C00095FFFCCF7F
:100750008093C6000895F8DF80E090E00895505837
:10076000BB27AA270ED01CC10DD130F012D120F02A
:1007700031F49F3F11F41EF402C10EF4E095E7FB43
:10078000F8C0E92F1ED180F3BA17620773078407F8
:10079000950718F071F49EF536C10EF4E0950B2E16
:1007A000BA2FA02D0B01B90190010C01CA01A001C3
:1007B0001124FF27591B99F0593F50F4503E68F11E
:1007C0001A16F040A22F232F342F4427585FF3CF5F
:1007D000469537952795A795F0405395C9F77EF430
:1007E0001F16BA0B620B730B840BBAF09150A1F079
:1007F000FF0FBB1F661F771F881FC2F70EC0BA0FFF
:10080000621F731F841F48F4879577956795B79586
:10081000F7959E3F08F0B3CF9395880F08F099277E
:10082000EE0F9795879508950CD0BAC0B2D040F0DE
:10083000A9D030F021F45F3F19F09BC05111E4C002
:100840009EC0BFD098F39923C9F35523B1F3951BEC
:10085000550BBB27AA2762177307840738F09F5FE1
:100860005F4F220F331F441FAA1FA9F333D00E2E50
:100870003AF0E0E830D091505040E695001CCAF7BD
:1008800029D0FE2F27D0660F771F881FBB1F261782
:1008900037074807AB07B0E809F0BB0B802DBF0155
:1008A000FF2793585F4F2AF09E3F510568F061C0C3
:1008B000ABC05F3FECF3983EDCF386957795679588
:1008C000B795F7959F5FC9F7880F911D9695879506
:1008D00097F90895E1E0660F771F881FBB1F621725
:1008E00073078407BA0720F0621B730B840BBA0BE3
:1008F000EE1F88F7E0950895E89409C097FB3EF451
:1009000090958095709561957F4F8F4F9F4F99235C
:10091000A9F0F92F96E9BB279395F69587957795DA
:100920006795B795F111F8CFFAF4BB0F11F460FF9A
:100930001BC06F5F7F4F8F4F9F4F16C0882311F0F2
:1009400096E911C0772321F09EE8872F762F05C006
:10095000662371F096E8862F70E060E02AF09A95A1
:10096000660F771F881FDAF7880F9695879597F996
:10097000089597F99F6780E870E060E008959FEF21
:1009800080EC089500240A94161617061806090626
:10099000089500240A9412161306140605060895F5
:1009A000092E0394000C11F4882352F0BB0F40F47D
:1009B000BF2B11F460FF04C06F5F7F4F8F4F9F4FBD
:1009C000089557FD9058440F551F59F05F3F71F03F
:1009D0004795880F97FB991F61F09F3F79F08795A6
:1009E0000895121613061406551FF2CF4695F1DF2F
:1009F00008C0161617061806991FF1CF86957105BF
:100A0000610508940895E894BB2766277727CB01F2
:100A100097F908950BD0C4CFB5DF28F0BADF18F0EE
:100A2000952309F0A6CFABCF1124EECFCADFA0F3F8
:100A3000959FD1F3950F50E0551F629FF001729F73
:100A4000BB27F00DB11D639FAA27F00DB11DAA1F92
:100A5000649F6627B00DA11D661F829F2227B00DDF
:100A6000A11D621F739FB00DA11D621F839FA00D6A
:100A7000611D221F749F3327A00D611D231F849FBA
:100A8000600D211D822F762F6A2F11249F57504011
:100A90008AF0E1F088234AF0EE0FFF1FBB1F661FAC
:100AA000771F881F91505040A9F79E3F510570F065
:100AB00060CFAACF5F3FECF3983EDCF38695779545
:100AC0006795B795F795E7959F5FC1F7FE2B880F60
:100AD000911D9695879597F908952F923F924F9281
:100AE0005F926F927F928F929F92AF92BF92CF92BE
:100AF000DF92EF92FF920F931F93CF93DF93CDB7C7
:100B0000DEB760970FB6F894DEBF0FBECDBF7C0195
:100B10001B016A01FC0117821682838181FF2AC3AF
:100B20009E012F5F3F4F3901F7019381F10193FD42
:100B3000859193FF81911F01882309F417C38532A2
:100B400039F493FD859193FF81911F01853231F432
:100B5000B70190E05BD456016501E6CF10E0512C5F
:100B6000912CFFE1F915D8F08B3279F038F480320E
:100B700079F08332A1F4F92DF0612EC08D3261F04D
:100B8000803369F4292D21602DC0392D3260932ED8
:100B9000892D8460982E2AC0E92DE86015C097FC45
:100BA0002DC020ED280F2A3088F496FE06C03AE0CA
:100BB000139F200D1124122F19C08AE0589E200D7A
:100BC0001124522EE92DE0629E2E10C08E3231F497
:100BD00096FCCCC2F92DF0649F2E08C08C3621F40F
:100BE000292D2068922E02C0883641F4F10193FD30
:100BF000859193FF81911F018111B3CF9BEB980FDA
:100C0000933020F4992D9061805E07C09BE9980F86
:100C1000933008F059C1992D9F7E96FF16E09F737F
:100C2000992E853619F49064992E08C0863621F4E1
:100C3000392F3068932E02C01111115097FE07C052
:100C40001C3350F444244394410E27E00BC0183069
:100C500038F027E017E005C027E09CE3492E02C0EA
:100C6000212F412C560184E0A80EB11CF6016081B1
:100C7000718182819381042DA301DAD26C01F98103
:100C8000FC87F0FF02C0F3FF06C091FC06C092FE95
:100C900006C000E205C00DE203C00BE201C000E0A7
:100CA0008C858C7019F0011143C280C297FE10C070
:100CB0004C0CFC85F4FF04C08A81813309F44A940A
:100CC000141474F528E0241578F588E0482E2CC01B
:100CD00096FC2AC0812F90E08C159D059CF03CEF7E
:100CE000C3163FEFD30674F0892D8068982E0AC092
:100CF000E2E0F0E0EC0FFD1FE10FF11D8081803399
:100D000019F411501111F4CF97FE0EC044244394EE
:100D1000410E812F90E0C816D9062CF41C1904C08E
:100D20004424439401C010E097FE06C01C141D0427
:100D300034F4C601019605C085E090E002C081E070
:100D400090E001110196112331F0212F30E02F5F47
:100D50003F4F820F931F252D30E08217930714F425
:100D6000581A01C0512C892D897041F4552031F059
:100D7000B70180E290E04AD35A94F8CF002321F0E3
:100D8000B701802F90E042D393FC08C0552031F08A
:100D9000B70180E390E03AD35A94F8CF97FE4AC067
:100DA0004601D7FE02C0812C912CC60188199909F1
:100DB000F301E80FF91FFE87ED8796012419310929
:100DC000388B2F87012F10E01195019511093FEF06
:100DD0008316930621F4B7018EE290E017D3C8146E
:100DE000D9044CF08F8598898815990524F4ED85F0
:100DF000FE85818101C080E3F1E08F1A91082D8585
:100E00003E852F5F3F4F3E872D878016910624F049
:100E1000B70190E0FBD2DBCFC814D90441F49A812A
:100E2000963320F4953319F43C8534FF81E3B70100
:100E300090E048C08A81813319F09C859F7E9C8711
:100E4000B70190E0E3D2111105C094FC16C085E60D
:100E500090E015C0B7018EE290E0D8D21E5F82E02C
:100E600001E0080FF301E80FF11D8081B70190E068
:100E7000CDD2802F0113F4CFE8CF85E490E0B70105
:100E8000C5D2D7FC06C0C114D10441F4EC85E4FFFF
:100E900005C0D194C194D1088DE201C08BE2B701A5
:100EA00090E0B4D280E32AE0C216D1042CF08F5F28
:100EB000FAE0CF1AD108F7CFB70190E0A7D2B70177
:100EC000C601C096A3D249C1833631F0833779F089
:100ED000833509F052C01FC0560132E0A30EB11C89
:100EE000F6018081898301E010E0630111C05601A1
:100EF000F2E0AF0EB11CF601C080D18096FE03C0B7
:100F0000612F70E002C06FEF7FEFC60174D28C01D9
:100F1000F92DFF7713C0560122E0A20EB11CF60195
:100F2000C080D18096FE03C0612F70E002C06FEFD9
:100F30007FEFC60155D28C01F92DF0689F2EF3FD8D
:100F400018C0852D90E00817190798F4B70180E2C2
:100F500090E05CD25A94F5CFF60197FC859197FE0C
:100F600081916F01B70190E051D251105A94015014
:100F700011090115110581F7F0C0843611F0893689
:100F800059F5560197FE09C024E0A20EB11CF601E6
:100F900060817181828193810AC0F2E0AF0EB11C41
:100FA000F60160817181072E000C880B990BF92DD9
:100FB000FF769F2E97FF09C090958095709561955B
:100FC0007F4F8F4F9F4FF0689F2E2AE030E0A301A4
:100FD0006CD2C82EC6183EC0092D853721F40F7E6D
:100FE0002AE030E01DC0097F8F3691F018F4883573
:100FF00059F0BCC0803719F0883711F0B7C00061D4
:1010000004FF09C0046007C094FE08C0066006C063
:1010100028E030E005C020E130E002C020E132E00D
:10102000560107FF09C084E0A80EB11CF6016081DB
:1010300071818281938108C0F2E0AF0EB11CF6018C
:101040006081718180E090E0A3012FD2C82EC61884
:101050000F77902E96FE0BC0092D0E7FC11650F40F
:1010600094FE0AC092FC08C0092D0E7E05C0DC2C3F
:10107000092D03C0DC2C01C0D12E04FF0DC0FE01E0
:10108000EC0DF11D8081803311F4097E09C002FF4F
:1010900006C0D394D39404C0802F867809F0D394EB
:1010A00003FD10C000FF06C01C2DD51478F4150DEB
:1010B0001D190CC0D51450F4B70180E290E0A6D100
:1010C000D394F8CFD51410F45D1801C0512C04FF4F
:1010D0000FC0B70180E390E099D102FF16C001FD77
:1010E00003C088E790E002C088E590E0B7010CC03B
:1010F000802F867851F001FF02C08BE201C080E2B0
:1011000007FD8DE2B70190E081D1C11630F4B7013F
:1011100080E390E07BD11150F8CFCA94F301EC0D3D
:10112000F11D8081B70190E071D1C110F6CF15C0DB
:10113000F4E0F51550F584E0581A93FE1EC0011135
:1011400025C02C8523FF27C004EE10E0392D307117
:10115000932EF8018491811121C0552009F4FCCC13
:10116000B70180E290E052D15A94F7CFF70186811F
:10117000978123C08FEF9FEF20C0B70180E290E0FE
:1011800045D15A945110F9CFDACF512CB701802FA5
:1011900090E03CD1D6CF08EE10E0D8CF911080522D
:1011A000B70190E033D10F5F1F4FD3CF23E0251558
:1011B00010F483E0C1CF512CC4CF60960FB6F894E1
:1011C000DEBF0FBECDBFDF91CF911F910F91FF907A
:1011D000EF90DF90CF90BF90AF909F908F907F90D7
:1011E0006F905F904F903F902F900895A1E21A2E3C
:1011F000AA1BBB1BFD010DC0AA1FBB1FEE1FFF1FBB
:10120000A217B307E407F50720F0A21BB30BE40B0A
:10121000F50B661F771F881F991F1A9469F7609551
:101220007095809590959B01AC01BD01CF0108950B
:10123000283008F027E03327DA01990F311D87FDA8
:10124000916000966105710539F432602E5F3D931F
:1012500030E32A95E1F708959F3F30F0803871051B
:10126000610509F03C5F3C5F3D93913008F0806878
:10127000911DDF93CF931F930F93FF92EF92192F3E
:10128000987F9695E92F96959695E90FFF27EA5B4B
:10129000FE4F99273327EE24FF24A701E70105908D
:1012A0000894079428F4360FE71EF81E491F511DB5
:1012B000660F771F881F991F0694A1F70590079462
:1012C00028F4E70EF81E491F561FC11D770F881F0F
:1012D000991F661F0694A1F70590079428F4F80E4D
:1012E000491F561FC71FD11D880F991F661F771FE3
:1012F0000694A1F70590079420F4490F561FC71FC5
:10130000D81F990F661F771F881F0694A9F784912D
:101310001095177041F0D695C79557954795F79456
:10132000E7941A95C1F7ECEEF0E0689415901591EA
:1013300035916591959105907FE27395E118F10AD9
:10134000430B560BC90BD009C0F7E10CF11E431F2C
:10135000561FC91FD01D7EF4703311F48A95E6CF55
:10136000E894015030F0080F0AF40027021708F43F
:10137000202F2395022F7A3328F079E37D932A9545
:10138000E9F710C07D932A9589F60694979567959D
:10139000379517951794E118F10A430B560BC90BB3
:1013A000D00998F023957E9173957A3308F070E315
:1013B0007C932013B8F77E9170617D9330F0839514
:1013C00071E37D9370E32A95E1F71124EF90FF908C
:1013D0000F911F91CF91DF91992787FD90950895E7
:1013E000FC010590615070400110D8F780959095F0
:1013F0008E0F9F1F0895FC016150704001900110F5
:10140000D8F7809590958E0F9F1F08950F931F9387
:10141000CF93DF93FB01238121FD03C08FEF9FEF6B
:101420002CC022FF16C04681578124813581421786
:10143000530744F4A081B1819D012F5F3F4F318359
:1014400020838C93268137812F5F3F4F37832683FC
:1014500014C08B01EC01FB010084F185E02D19958E
:10146000892BE1F6D80116968D919C9117970196DC
:1014700017969C938E931697CE01DF91CF911F9173
:101480000F910895CF93DF93CDB7DEB7AE014A5FDA
:101490005F4FFA0161917191AF0180915C0290916F
:1014A0005D021BDBDF91CF910895FA01AA27283056
:1014B00051F1203181F1E8946F936E7F6E5F7F4F21
:1014C0008F4F9F4FAF4FB1E03ED0B4E03CD0670F9D
:1014D000781F891F9A1FA11D680F791F8A1F911DF0
:1014E000A11D6A0F711D811D911DA11D20D009F440
:1014F00068943F912AE0269F11243019305D319382
:10150000DEF6CF010895462F4770405D4193B3E06A
:101510000FD0C9F7F6CF462F4F70405D4A3318F011
:10152000495D31FD4052419302D0A9F7EACFB4E0C2
:10153000A6959795879577956795BA95C9F700977A
:101540006105710508959B01AC010A2E069457951B
:10155000479537952795BA95C9F7620F731F841F72
:0A156000951FA01D0895F894FFCF19
:10156A000000000200000000AB03000000006368F6
:10157A0065636B206F6B210A0D004D454449434951
:10158A004F4E2044485432320A0D0054656D703A69
:10159A0020252E3266202D2048756D3A20252E32C0
:1015AA00660A0D00436F6D756E69636163696F6EDC
:0A15BA00206572726F72210A0D00A5
:00000001FF
