:1000000071C0000058C1000056C1000075C000005A
:1000100073C0000071C000006FC000006DC0000020
:100020006BC0000069C0000067C0000065C0000030
:1000300063C0000061C000005FC000005DC0000040
:100040005BC0000059C0000057C0000055C0000050
:1000500053C0000051C000004FC000004DC0000060
:100060004BC0000049C0000047C0000045C0000070
:1000700043C0000041C000003FC000003DC0000080
:100080003BC0000039C0000037C0000035C0000090
:1000900033C0000031C000002FC000002DC00000A0
:1000A0002BC0000029C0000027C0000025C00000B0
:1000B00023C0000021C000001FC000001DC00000C0
:1000C0001BC0000019C0000017C0000015C00000D0
:1000D00013C0000011C000000FC000000DC00000E0
:1000E0000BC0000011241FBECFEFD1E2DEBFCDBF99
:1000F00000E00CBF2AD142C183CFAF92BF92DF9202
:10010000FF920F931F93CF93DF93FC01A9E6B0E01A
:100110009C9180818370892B8C93DC90918193706A
:10012000892F90E0880F991F880F991F8D298C9334
:10013000DC909281937020E1929FC00111248D295F
:100140008C93DC90938130E4939FC00111248D291E
:100150008C93AAE6B0E09C9184818370892B8C9368
:10016000DC9095819370892F90E0880F991F880FFC
:10017000991F8D298C93DC909681937020E1929F3A
:10018000C00111248D298C93DC90978130E4939FDA
:10019000C00111248D298C938DB39085F1846F2D2E
:1001A000617070E0660F771F9170692B682B6DBBD3
:1001B0008DB39285092F017010E0000F111F000F01
:1001C000111F9385492F417050E0440F551F440F74
:1001D000551F440F551F402B482B4DBB8DB39485A5
:1001E0009170C92F90E0D92FC295D295D07FDC278E
:1001F000C07FDC279585292F217030E0220F331F27
:1002000022953295307F3227207F32272C2B282BC6
:100210002DBB2DB3868580FBAA24A0F8B12CD50177
:100220000024B695A7950794B695A7950794BA2F7D
:10023000A02D978530E8939FC00111248A2B822B33
:100240008DBB8DB38F7090E0809590959AB1892386
:100250008AB98DB3807F90E0809590959DB1892378
:100260008DB980898CBB8189882359F08DB39BB16E
:100270008F70892B8BB98DB39EB1807F892B8EB9FE
:1002800010C08DB38F7090E0809590959BB18923BD
:100290008BB98DB3807F90E0809590959EB1892336
:1002A0008EB97894DF91CF911F910F91FF90DF90DD
:1002B000BF90AF9008951F920F920FB60F92112426
:1002C0008F939F9398B181E0892788B99F918F91EF
:1002D0000F900FBE0F901F901895CF93DF93CDB75F
:1002E000DEB762970FB6F894DEBF0FBECDBF83E0D6
:1002F000898381E08987198A1A8ACE010196FDDEF9
:1003000062960FB6F894DEBF0FBECDBFDF91CF91DE
:100310000895CF93DF93CDB7DEB762970FB6F89409
:10032000DEBF0FBECDBF83E08A8381E08A87198A52
:100330001A8ACE010196E1DE62960FB6F894DEBF0E
:100340000FBECDBFDF91CF91089587B1816087B98E
:1003500087B1806187B988B1816088B9BEDFD9DF94
:1003600098B180E1892788B92FEF89E698E121507B
:1003700080409040E1F700C00000F2CFF894FFCF3A
:00000001FF
