:1000000071C000008EC000008CC000008AC00000DB
:1000100088C0000086C0000084C0000082C00000CC
:1000200080C000007EC000007CC000007AC00000DC
:1000300078C0000076C0000074C0000072C00000EC
:1000400070C000006EC000006CC000006AC00000FC
:1000500068C0000066C0000064C0000062C000000C
:1000600060C000005EC000005CC000005AC000001C
:1000700058C0000056C0000054C0000052C000002C
:1000800050C000004EC000004CC000004AC000003C
:1000900048C0000046C0000044C0000042C000004C
:1000A00040C000003EC000003CC000003AC000005C
:1000B00038C0000036C0000034C0000032C000006C
:1000C00030C000002EC000002CC000002AC000007C
:1000D00028C0000026C0000024C0000022C000008C
:1000E00020C0000011241FBECFEFD1E2DEBFCDBF84
:1000F00000E00CBF12E0A0E0B2E0E0E6F2E000E0D9
:100100000BBF02C007900D92A830B107D9F722E0CB
:10011000A8E0B2E001C01D92AB30B207E1F794D085
:100120009DC06ECF9AB19E609AB9882341F08FEF3F
:1001300084B980910A02806180930A0208958FE059
:1001400084B980910A028F7E80930A02089590916B
:100150000A0294FF0EC085B98BB188608BB98FE914
:100160009FE00197F1F700C000008BB1877F8BB94A
:100170000895982F92959F708F7095B99BB1986054
:100180009BB9EFE9FFE03197F1F700C000009BB1A8
:10019000977F9BB985B98BB188608BB98FE99FE058
:1001A0000197F1F700C000008BB1877F8BB90895EC
:1001B0009BB192609BB9CBCF08950F931F93CF93C0
:1001C0008C01C0E002C0F4DFCF5FF801EC0FF11D3D
:1001D00080818111F8CFCF911F910F9108958111E6
:1001E00002C080E801C080EC9BB19D7F9BB9860F67
:1001F000AEDF8BB182608BB908958BB18B7F8BB9E9
:100200008BB18D7F8BB98091080284608E7F826074
:1002100080930802809109028E608E7F809309028C
:1002200080910A028862846080930A0281E08FDFF5
:1002300082E08DDF809108028ADF8091090287DFEA
:1002400080910A0284CF089580E06CDFD6DF60E001
:1002500080E0C5DF80E092E0B0DFFFCFF894FFCF11
:08026000486F6C61203A29008F
:00000001FF
