S012000055534152545F434F4E462E73726563FE
S113000071C0000086C0000084C0000082C00000EF
S113001080C000007EC000007CC000007AC00000E8
S113002078C0000076C0000074C0000072C00000F8
S113003070C000006EC000006CC000006AC0000008
S113004068C0000066C0000064C0000062C0000018
S113005060C000005EC000005CC000005AC0000028
S113006058C0000056C0000054C0000052C0000038
S113007050C000004EC000004CC000004AC0000048
S113008048C0000046C0000044C0000042C0000058
S113009040C000003EC000003CC000003AC0000068
S11300A038C0000036C0000034C0000032C0000078
S11300B030C000002EC000002CC000002AC0000088
S11300C028C0000026C0000024C0000022C0000098
S11300D020C000001EC000001CC000001AC00000A8
S11300E018C0000011241FBECFEFD1E2DEBFCDBF88
S11300F000E00CBF12E0A0E0B2E0E4E6F4E000E0CF
S11301000BBF02C007900D92A433B107D9F72ED0CC
S1130110A7C176CFCF93DF93CDB7DEB72F970FB6B6
S1130120F894DEBF0FBECDBF80E895E2A0E0B0E05A
S11301308C879D87AE87BF871B8681E08D838E83E6
S11301408B831C8283E08F8319861A82188682E04F
S11301508A871982CE01019638D02F960FB6F8946B
S1130160DEBF0FBECDBFDF91CF91089584B187600C
S113017084B985B18E7F85B9CDDF80E092E039D135
S113018028D18823E9F3823359F0833381F0813312
S1130190A9F485B1816085B987E092E02AD1F0CFD6
S11301A085B1826085B982E192E023D1E9CF85B13E
S11301B0846085B98DE192E01CD1E2CF85B1887F5E
S11301C085B988E292E015D1DBCFCF92DF92EF922E
S11301D0FF920F931F93CF93DF93EC018DB1826055
S11301E08DB98DB18E7F8DB9E0ECF0E01082109264
S11301F0C1001092C20080818F7B8083208198810E
S1130200892F90E0880F991F822B808390818981A8
S1130210892B8083808181FF1EC08B859C85AD8561
S1130220BE85880F991FAA1FBB1F880F991FAA1F7D
S1130230BB1F9C01AD01220F331F441F551F60E0FB
S113024074E284EF90E0EAD0215031093093C50084
S11302502093C40021C08B859C85AD85BE85880F05
S1130260991FAA1FBB1F880F991FAA1FBB1F9C01A0
S1130270AD01220F331F441F551F220F331F441F8C
S1130280551F60E074E284EF90E0C8D0215031093A
S11302903093C5002093C400E1ECF0E020818A8112
S11302A030E8839FA00111249D8130E4939FC00115
S11302B011249F81842B892B822B808320818C8124
S11302C090E1899FA00111249D81892F90E0880FDE
S11302D0991F880F991F880F991F842B822B808365
S11302E02E81822F847090E09595879595958795BA
S11302F030819927880F991F880F991F832B80833A
S113030038854081932F9270892F90E09595879539
S11303109695982F882797958795842B808380813D
S113032030FBCC24C0F8D12C0024D694C794079475
S1130330D694C7940794DC2CC02CC82AC082498563
S1130340E2ECF0E03081842F827090E095958795FF
S1130350880F991F82959295907F9827807F982780
S113036040FBEE24E0F8F12CEE0CFF1CEE0CFF1C1D
S1130370EE0CFF1CEE0CFF1CE82AE32AE08230811D
S11303809A85892F90E0880F991F880F991F880FED
S1130390991F832B80833081822F827090E0959502
S11303A08795880F991F880F991F022F017010E0FD
S11303B0000F111F082B032B008380818160808331
S11303C0DF91CF911F910F91FF90EF90DF90CF902D
S11303D008958091C00088231CF48091C60008957C
S11303E080E008959091C00095FFFCCF8093C600F3
S11303F008950F931F93CF93DF938C01C0E0D0E057
S113040002C0F0DF2196F801EC0FFD1F80818111FD
S1130410F8CFDF91CF911F910F910895A1E21A2E89
S1130420AA1BBB1BFD010DC0AA1FBB1FEE1FFF1F94
S1130430A217B307E407F50720F0A21BB30BE40BE4
S1130440F50B661F771F881F991F1A9469F760952B
S11304507095809590959B01AC01BD01CF010895E5
S1070460F894FFCF3A
S1130464486F6C610A0D004C65642031204F4E0ABC
S11304740D004C65642032204F4E0A0D004C656417
S11304842033204F4E0A0D004C656473204F4646BA
S10704940A0D000049
S9030000FC
