:1000000071C0000060C100005EC100007DC0000042
:100010007BC0000079C0000077C0000075C0000000
:1000200073C0000071C000006FC000006DC0000010
:100030006BC0000069C0000067C0000065C0000020
:1000400063C0000061C000005FC000005DC0000030
:100050005BC0000059C0000057C0000055C0000040
:1000600053C0000051C000004FC000004DC0000050
:100070004BC0000049C0000047C0000045C0000060
:1000800043C0000041C000003FC000003DC0000070
:100090003BC0000039C0000037C0000035C0000080
:1000A00033C0000031C000002FC000002DC0000090
:1000B0002BC0000029C0000027C0000025C00000A0
:1000C00023C0000021C000001FC000001DC00000B0
:1000D0001BC0000019C0000017C0000015C00000C0
:1000E00013C0000011241FBECFEFD1E2DEBFCDBF91
:1000F00000E00CBF22E0A0E0B2E001C01D92A13000
:10010000B207E1F733D17DC17BCFAF92BF92DF92CF
:10011000FF920F931F93CF93DF93FC01A9E6B0E00A
:100120009C9180818370892B8C93DC90918193705A
:10013000892F90E0880F991F880F991F8D298C9324
:10014000DC909281937020E1929FC00111248D294F
:100150008C93DC90938130E4939FC00111248D290E
:100160008C93AAE6B0E09C9184818370892B8C9358
:10017000DC9095819370892F90E0880F991F880FEC
:10018000991F8D298C93DC909681937020E1929F2A
:10019000C00111248D298C93DC90978130E4939FCA
:1001A000C00111248D298C938DB39085F1846F2D1E
:1001B000617070E0660F771F9170692B682B6DBBC3
:1001C0008DB39285092F017010E0000F111F000FF1
:1001D000111F9385492F417050E0440F551F440F64
:1001E000551F440F551F402B482B4DBB8DB3948595
:1001F0009170C92F90E0D92FC295D295D07FDC277E
:10020000C07FDC279585292F217030E0220F331F16
:1002100022953295307F3227207F32272C2B282BB6
:100220002DBB2DB3868580FBAA24A0F8B12CD50167
:100230000024B695A7950794B695A7950794BA2F6D
:10024000A02D978530E8939FC00111248A2B822B23
:100250008DBB8DB38F7090E0809590959AB1892376
:100260008AB98DB3807F90E0809590959DB1892368
:100270008DB980898CBB8189882359F08DB39BB15E
:100280008F70892B8BB98DB39EB1807F892B8EB9EE
:1002900010C08DB38F7090E0809590959BB18923AD
:1002A0008BB98DB3807F90E0809590959EB1892326
:1002B0008EB97894DF91CF911F910F91FF90DF90CD
:1002C000BF90AF9008951F920F920FB60F92112416
:1002D00088B18E7F88B988B1846088B988B18D7FF4
:1002E00088B92FEF83E294EF215080409040E1F7EE
:1002F00000C0000098E088E10FB6F894A8958093BC
:1003000060000FBE90936000FFCFCF93DF93CDB717
:10031000DEB762970FB6F894DEBF0FBECDBF198A65
:1003200093E0998381E089879A838A871A8ACE012C
:100330000196EBDE62960FB6F894DEBF0FBECDBF1E
:10034000DF91CF91089587B1816087B987B18260CD
:1003500087B987B1846087B988B18E7F88B988B141
:100360008D7F88B988B18B7F88B90895ECDFCDDFA8
:10037000809100028130D1F018F0823069F1F8CF1D
:1003800088B1816088B988B18B7F88B988B18D7F49
:1003900088B92FEF8BE792E9215080409040E1F738
:1003A00000C0000081E080930002E2CF88B18E7F20
:1003B00088B988B18B7F88B988B1826088B92FEFFE
:1003C00089E698E1215080409040E1F700C00000AC
:1003D00082E080930002CCCF88B18E7F88B988B14B
:1003E000846088B988B18D7F88B92FEF87EA91E65C
:1003F000215080409040E1F700C0000010920002C0
:06040000B7CFF894FFCF16
:00000001FF
